:020000040000FA
:060000000A128A11E42F30
:100F2000633400343F3406345B344F3466346D34FC
:100F30007C3407347F346F347E088A007F08820057
:100F40009C270A128A118000840A04087D0603196E
:100F50000034FF0A0319FE0AA02F8316031386012B
:100F6000870183120313870186010930F2000030E4
:100F7000F3000930F0000030F10083120313071072
:100F800087147208203E84008313000886004130D5
:100F9000F700EE30F600F60BCB2FF70BCB2F00004F
:100FA00083120313871007147008203E84008313F4
:100FB000000886004130F700EE30F600F60BDE2F19
:100FC000F70BDE2F0000BD2F83132A30FD00073002
:100FD000FE009230FF00203084000A128A11A02700
:100FE0000A128A110A128A1190270A128A11F40031
:100FF0000A128A119127F50083010A128A11AD2F76
:02400E00BB3FB6
:00000001FF
